{
  "_format": "hh-sol-artifact-1",
  "contractName": "Walker",
  "sourceName": "contracts/Walker.sol",
  "abi": [
    {
      "inputs": [],
      "stateMutability": "nonpayable",
      "type": "constructor"
    },
    {
      "anonymous": false,
      "inputs": [
        {
          "indexed": true,
          "internalType": "address",
          "name": "owner",
          "type": "address"
        },
        {
          "indexed": true,
          "internalType": "address",
          "name": "approved",
          "type": "address"
        },
        {
          "indexed": true,
          "internalType": "uint256",
          "name": "tokenId",
          "type": "uint256"
        }
      ],
      "name": "Approval",
      "type": "event"
    },
    {
      "anonymous": false,
      "inputs": [
        {
          "indexed": true,
          "internalType": "address",
          "name": "owner",
          "type": "address"
        },
        {
          "indexed": true,
          "internalType": "address",
          "name": "operator",
          "type": "address"
        },
        {
          "indexed": false,
          "internalType": "bool",
          "name": "approved",
          "type": "bool"
        }
      ],
      "name": "ApprovalForAll",
      "type": "event"
    },
    {
      "anonymous": false,
      "inputs": [
        {
          "indexed": true,
          "internalType": "address",
          "name": "previousOwner",
          "type": "address"
        },
        {
          "indexed": true,
          "internalType": "address",
          "name": "newOwner",
          "type": "address"
        }
      ],
      "name": "OwnershipTransferred",
      "type": "event"
    },
    {
      "anonymous": false,
      "inputs": [
        {
          "indexed": true,
          "internalType": "address",
          "name": "from",
          "type": "address"
        },
        {
          "indexed": true,
          "internalType": "address",
          "name": "to",
          "type": "address"
        },
        {
          "indexed": true,
          "internalType": "uint256",
          "name": "tokenId",
          "type": "uint256"
        }
      ],
      "name": "Transfer",
      "type": "event"
    },
    {
      "inputs": [
        {
          "internalType": "uint256",
          "name": "tokenId",
          "type": "uint256"
        },
        {
          "internalType": "string",
          "name": "_tokenWalkerName",
          "type": "string"
        }
      ],
      "name": "_setTokenName",
      "outputs": [],
      "stateMutability": "nonpayable",
      "type": "function"
    },
    {
      "inputs": [
        {
          "internalType": "uint256",
          "name": "tokenId",
          "type": "uint256"
        },
        {
          "internalType": "uint256",
          "name": "_walkerContribution",
          "type": "uint256"
        }
      ],
      "name": "_setWalkerContribution",
      "outputs": [],
      "stateMutability": "nonpayable",
      "type": "function"
    },
    {
      "inputs": [
        {
          "internalType": "uint256",
          "name": "",
          "type": "uint256"
        }
      ],
      "name": "_tokenWalkerNames",
      "outputs": [
        {
          "internalType": "string",
          "name": "",
          "type": "string"
        }
      ],
      "stateMutability": "view",
      "type": "function"
    },
    {
      "inputs": [
        {
          "internalType": "uint256",
          "name": "",
          "type": "uint256"
        }
      ],
      "name": "_walkerContributions",
      "outputs": [
        {
          "internalType": "uint256",
          "name": "",
          "type": "uint256"
        }
      ],
      "stateMutability": "view",
      "type": "function"
    },
    {
      "inputs": [
        {
          "internalType": "address",
          "name": "to",
          "type": "address"
        },
        {
          "internalType": "uint256",
          "name": "tokenId",
          "type": "uint256"
        }
      ],
      "name": "approve",
      "outputs": [],
      "stateMutability": "nonpayable",
      "type": "function"
    },
    {
      "inputs": [
        {
          "internalType": "address",
          "name": "owner",
          "type": "address"
        }
      ],
      "name": "balanceOf",
      "outputs": [
        {
          "internalType": "uint256",
          "name": "",
          "type": "uint256"
        }
      ],
      "stateMutability": "view",
      "type": "function"
    },
    {
      "inputs": [
        {
          "internalType": "uint256",
          "name": "tokenId",
          "type": "uint256"
        }
      ],
      "name": "getApproved",
      "outputs": [
        {
          "internalType": "address",
          "name": "",
          "type": "address"
        }
      ],
      "stateMutability": "view",
      "type": "function"
    },
    {
      "inputs": [
        {
          "internalType": "address",
          "name": "owner",
          "type": "address"
        },
        {
          "internalType": "address",
          "name": "operator",
          "type": "address"
        }
      ],
      "name": "isApprovedForAll",
      "outputs": [
        {
          "internalType": "bool",
          "name": "",
          "type": "bool"
        }
      ],
      "stateMutability": "view",
      "type": "function"
    },
    {
      "inputs": [
        {
          "internalType": "address",
          "name": "recipient",
          "type": "address"
        },
        {
          "internalType": "string",
          "name": "name",
          "type": "string"
        }
      ],
      "name": "mint",
      "outputs": [
        {
          "internalType": "uint256",
          "name": "",
          "type": "uint256"
        }
      ],
      "stateMutability": "nonpayable",
      "type": "function"
    },
    {
      "inputs": [],
      "name": "name",
      "outputs": [
        {
          "internalType": "string",
          "name": "",
          "type": "string"
        }
      ],
      "stateMutability": "view",
      "type": "function"
    },
    {
      "inputs": [],
      "name": "owner",
      "outputs": [
        {
          "internalType": "address",
          "name": "",
          "type": "address"
        }
      ],
      "stateMutability": "view",
      "type": "function"
    },
    {
      "inputs": [
        {
          "internalType": "uint256",
          "name": "tokenId",
          "type": "uint256"
        }
      ],
      "name": "ownerOf",
      "outputs": [
        {
          "internalType": "address",
          "name": "",
          "type": "address"
        }
      ],
      "stateMutability": "view",
      "type": "function"
    },
    {
      "inputs": [],
      "name": "renounceOwnership",
      "outputs": [],
      "stateMutability": "nonpayable",
      "type": "function"
    },
    {
      "inputs": [
        {
          "internalType": "address",
          "name": "from",
          "type": "address"
        },
        {
          "internalType": "address",
          "name": "to",
          "type": "address"
        },
        {
          "internalType": "uint256",
          "name": "tokenId",
          "type": "uint256"
        }
      ],
      "name": "safeTransferFrom",
      "outputs": [],
      "stateMutability": "nonpayable",
      "type": "function"
    },
    {
      "inputs": [
        {
          "internalType": "address",
          "name": "from",
          "type": "address"
        },
        {
          "internalType": "address",
          "name": "to",
          "type": "address"
        },
        {
          "internalType": "uint256",
          "name": "tokenId",
          "type": "uint256"
        },
        {
          "internalType": "bytes",
          "name": "_data",
          "type": "bytes"
        }
      ],
      "name": "safeTransferFrom",
      "outputs": [],
      "stateMutability": "nonpayable",
      "type": "function"
    },
    {
      "inputs": [
        {
          "internalType": "address",
          "name": "operator",
          "type": "address"
        },
        {
          "internalType": "bool",
          "name": "approved",
          "type": "bool"
        }
      ],
      "name": "setApprovalForAll",
      "outputs": [],
      "stateMutability": "nonpayable",
      "type": "function"
    },
    {
      "inputs": [
        {
          "internalType": "bytes4",
          "name": "interfaceId",
          "type": "bytes4"
        }
      ],
      "name": "supportsInterface",
      "outputs": [
        {
          "internalType": "bool",
          "name": "",
          "type": "bool"
        }
      ],
      "stateMutability": "view",
      "type": "function"
    },
    {
      "inputs": [],
      "name": "symbol",
      "outputs": [
        {
          "internalType": "string",
          "name": "",
          "type": "string"
        }
      ],
      "stateMutability": "view",
      "type": "function"
    },
    {
      "inputs": [
        {
          "internalType": "uint256",
          "name": "tokenId",
          "type": "uint256"
        }
      ],
      "name": "tokenURI",
      "outputs": [
        {
          "internalType": "string",
          "name": "",
          "type": "string"
        }
      ],
      "stateMutability": "view",
      "type": "function"
    },
    {
      "inputs": [
        {
          "internalType": "uint256",
          "name": "tokenId",
          "type": "uint256"
        }
      ],
      "name": "tokenWalkerName",
      "outputs": [
        {
          "internalType": "string",
          "name": "",
          "type": "string"
        }
      ],
      "stateMutability": "view",
      "type": "function"
    },
    {
      "inputs": [
        {
          "internalType": "address",
          "name": "from",
          "type": "address"
        },
        {
          "internalType": "address",
          "name": "to",
          "type": "address"
        },
        {
          "internalType": "uint256",
          "name": "tokenId",
          "type": "uint256"
        }
      ],
      "name": "transferFrom",
      "outputs": [],
      "stateMutability": "nonpayable",
      "type": "function"
    },
    {
      "inputs": [
        {
          "internalType": "address",
          "name": "newOwner",
          "type": "address"
        }
      ],
      "name": "transferOwnership",
      "outputs": [],
      "stateMutability": "nonpayable",
      "type": "function"
    },
    {
      "inputs": [
        {
          "internalType": "uint256",
          "name": "tokenId",
          "type": "uint256"
        }
      ],
      "name": "walkerContribution",
      "outputs": [
        {
          "internalType": "uint256",
          "name": "",
          "type": "uint256"
        }
      ],
      "stateMutability": "view",
      "type": "function"
    }
  ],
  "bytecode": "0x60806040523480156200001157600080fd5b506040518060400160405280600681526020017f57616c6b657200000000000000000000000000000000000000000000000000008152506040518060400160405280600381526020017f5741540000000000000000000000000000000000000000000000000000000000815250816000908051906020019062000096929190620001a6565b508060019080519060200190620000af929190620001a6565b505050620000d2620000c6620000d860201b60201c565b620000e060201b60201c565b620002bb565b600033905090565b6000600660009054906101000a900473ffffffffffffffffffffffffffffffffffffffff16905081600660006101000a81548173ffffffffffffffffffffffffffffffffffffffff021916908373ffffffffffffffffffffffffffffffffffffffff1602179055508173ffffffffffffffffffffffffffffffffffffffff168173ffffffffffffffffffffffffffffffffffffffff167f8be0079c531659141344cd1fd0a4f28419497f9722a3daafe3b4186f6b6457e060405160405180910390a35050565b828054620001b49062000256565b90600052602060002090601f016020900481019282620001d8576000855562000224565b82601f10620001f357805160ff191683800117855562000224565b8280016001018555821562000224579182015b828111156200022357825182559160200191906001019062000206565b5b50905062000233919062000237565b5090565b5b808211156200025257600081600090555060010162000238565b5090565b600060028204905060018216806200026f57607f821691505b602082108114156200028657620002856200028c565b5b50919050565b7f4e487b7100000000000000000000000000000000000000000000000000000000600052602260045260246000fd5b6130c080620002cb6000396000f3fe608060405234801561001057600080fd5b506004361061014d5760003560e01c806373cd86ce116100c3578063c4ef52921161007c578063c4ef52921461039a578063c87b56dd146103ca578063d0def521146103fa578063e985e9c51461042a578063ee4997b41461045a578063f2fde38b1461048a5761014d565b806373cd86ce146102da578063820bfa211461030a5780638da5cb5b1461032657806395d89b4114610344578063a22cb46514610362578063b88d4fde1461037e5761014d565b8063320f136a11610115578063320f136a1461020857806342842e0e1461022457806344c7e1d6146102405780636352211e1461027057806370a08231146102a0578063715018a6146102d05761014d565b806301ffc9a71461015257806306fdde0314610182578063081812fc146101a0578063095ea7b3146101d057806323b872dd146101ec575b600080fd5b61016c600480360381019061016791906120a8565b6104a6565b6040516101799190612556565b60405180910390f35b61018a610588565b6040516101979190612571565b60405180910390f35b6101ba60048036038101906101b59190612102565b61061a565b6040516101c791906124ef565b60405180910390f35b6101ea60048036038101906101e59190612068565b61069f565b005b61020660048036038101906102019190611ef6565b6107b7565b005b610222600480360381019061021d919061212f565b610817565b005b61023e60048036038101906102399190611ef6565b610843565b005b61025a60048036038101906102559190612102565b610863565b6040516102679190612793565b60405180910390f35b61028a60048036038101906102859190612102565b61087b565b60405161029791906124ef565b60405180910390f35b6102ba60048036038101906102b59190611e89565b61092d565b6040516102c79190612793565b60405180910390f35b6102d86109e5565b005b6102f460048036038101906102ef9190612102565b610a6d565b6040516103019190612793565b60405180910390f35b610324600480360381019061031f919061218b565b610ad8565b005b61032e610af4565b60405161033b91906124ef565b60405180910390f35b61034c610b1e565b6040516103599190612571565b60405180910390f35b61037c60048036038101906103779190611fcc565b610bb0565b005b61039860048036038101906103939190611f49565b610d31565b005b6103b460048036038101906103af9190612102565b610d93565b6040516103c19190612571565b60405180910390f35b6103e460048036038101906103df9190612102565b610e33565b6040516103f19190612571565b60405180910390f35b610414600480360381019061040f919061200c565b610eda565b6040516104219190612793565b60405180910390f35b610444600480360381019061043f9190611eb6565b610f12565b6040516104519190612556565b60405180910390f35b610474600480360381019061046f9190612102565b610fa6565b6040516104819190612571565b60405180910390f35b6104a4600480360381019061049f9190611e89565b611099565b005b60007f80ac58cd000000000000000000000000000000000000000000000000000000007bffffffffffffffffffffffffffffffffffffffffffffffffffffffff1916827bffffffffffffffffffffffffffffffffffffffffffffffffffffffff1916148061057157507f5b5e139f000000000000000000000000000000000000000000000000000000007bffffffffffffffffffffffffffffffffffffffffffffffffffffffff1916827bffffffffffffffffffffffffffffffffffffffffffffffffffffffff1916145b80610581575061058082611191565b5b9050919050565b606060008054610597906129e9565b80601f01602080910402602001604051908101604052809291908181526020018280546105c3906129e9565b80156106105780601f106105e557610100808354040283529160200191610610565b820191906000526020600020905b8154815290600101906020018083116105f357829003601f168201915b5050505050905090565b6000610625826111fb565b610664576040517f08c379a000000000000000000000000000000000000000000000000000000000815260040161065b906126d3565b60405180910390fd5b6004600083815260200190815260200160002060009054906101000a900473ffffffffffffffffffffffffffffffffffffffff169050919050565b60006106aa8261087b565b90508073ffffffffffffffffffffffffffffffffffffffff168373ffffffffffffffffffffffffffffffffffffffff16141561071b576040517f08c379a000000000000000000000000000000000000000000000000000000000815260040161071290612753565b60405180910390fd5b8073ffffffffffffffffffffffffffffffffffffffff1661073a611267565b73ffffffffffffffffffffffffffffffffffffffff161480610769575061076881610763611267565b610f12565b5b6107a8576040517f08c379a000000000000000000000000000000000000000000000000000000000815260040161079f90612653565b60405180910390fd5b6107b2838361126f565b505050565b6107c86107c2611267565b82611328565b610807576040517f08c379a00000000000000000000000000000000000000000000000000000000081526004016107fe90612773565b60405180910390fd5b610812838383611406565b505050565b8060086000848152602001908152602001600020908051906020019061083e929190611c9d565b505050565b61085e83838360405180602001604052806000815250610d31565b505050565b60096020528060005260406000206000915090505481565b6000806002600084815260200190815260200160002060009054906101000a900473ffffffffffffffffffffffffffffffffffffffff169050600073ffffffffffffffffffffffffffffffffffffffff168173ffffffffffffffffffffffffffffffffffffffff161415610924576040517f08c379a000000000000000000000000000000000000000000000000000000000815260040161091b90612693565b60405180910390fd5b80915050919050565b60008073ffffffffffffffffffffffffffffffffffffffff168273ffffffffffffffffffffffffffffffffffffffff16141561099e576040517f08c379a000000000000000000000000000000000000000000000000000000000815260040161099590612673565b60405180910390fd5b600360008373ffffffffffffffffffffffffffffffffffffffff1673ffffffffffffffffffffffffffffffffffffffff168152602001908152602001600020549050919050565b6109ed611267565b73ffffffffffffffffffffffffffffffffffffffff16610a0b610af4565b73ffffffffffffffffffffffffffffffffffffffff1614610a61576040517f08c379a0000000000000000000000000000000000000000000000000000000008152600401610a58906126f3565b60405180910390fd5b610a6b6000611662565b565b6000610a78826111fb565b610ab7576040517f08c379a0000000000000000000000000000000000000000000000000000000008152600401610aae90612733565b60405180910390fd5b60006009600084815260200190815260200160002054905080915050919050565b8060096000848152602001908152602001600020819055505050565b6000600660009054906101000a900473ffffffffffffffffffffffffffffffffffffffff16905090565b606060018054610b2d906129e9565b80601f0160208091040260200160405190810160405280929190818152602001828054610b59906129e9565b8015610ba65780601f10610b7b57610100808354040283529160200191610ba6565b820191906000526020600020905b815481529060010190602001808311610b8957829003601f168201915b5050505050905090565b610bb8611267565b73ffffffffffffffffffffffffffffffffffffffff168273ffffffffffffffffffffffffffffffffffffffff161415610c26576040517f08c379a0000000000000000000000000000000000000000000000000000000008152600401610c1d90612613565b60405180910390fd5b8060056000610c33611267565b73ffffffffffffffffffffffffffffffffffffffff1673ffffffffffffffffffffffffffffffffffffffff16815260200190815260200160002060008473ffffffffffffffffffffffffffffffffffffffff1673ffffffffffffffffffffffffffffffffffffffff16815260200190815260200160002060006101000a81548160ff0219169083151502179055508173ffffffffffffffffffffffffffffffffffffffff16610ce0611267565b73ffffffffffffffffffffffffffffffffffffffff167f17307eab39ab6107e8899845ad3d59bd9653f200f220920489ca2b5937696c3183604051610d259190612556565b60405180910390a35050565b610d42610d3c611267565b83611328565b610d81576040517f08c379a0000000000000000000000000000000000000000000000000000000008152600401610d7890612773565b60405180910390fd5b610d8d84848484611728565b50505050565b60086020528060005260406000206000915090508054610db2906129e9565b80601f0160208091040260200160405190810160405280929190818152602001828054610dde906129e9565b8015610e2b5780601f10610e0057610100808354040283529160200191610e2b565b820191906000526020600020905b815481529060010190602001808311610e0e57829003601f168201915b505050505081565b6060610e3e826111fb565b610e7d576040517f08c379a0000000000000000000000000000000000000000000000000000000008152600401610e7490612733565b60405180910390fd5b6000610e87611784565b90506000815111610ea75760405180602001604052806000815250610ed2565b80610eb18461179b565b604051602001610ec29291906124cb565b6040516020818303038152906040525b915050919050565b6000610ee660076118fc565b6000610ef26007611912565b9050610efe8482611920565b610f088184610817565b8091505092915050565b6000600560008473ffffffffffffffffffffffffffffffffffffffff1673ffffffffffffffffffffffffffffffffffffffff16815260200190815260200160002060008373ffffffffffffffffffffffffffffffffffffffff1673ffffffffffffffffffffffffffffffffffffffff16815260200190815260200160002060009054906101000a900460ff16905092915050565b6060610fb1826111fb565b610ff0576040517f08c379a0000000000000000000000000000000000000000000000000000000008152600401610fe790612733565b60405180910390fd5b6000600860008481526020019081526020016000208054611010906129e9565b80601f016020809104026020016040519081016040528092919081815260200182805461103c906129e9565b80156110895780601f1061105e57610100808354040283529160200191611089565b820191906000526020600020905b81548152906001019060200180831161106c57829003601f168201915b5050505050905080915050919050565b6110a1611267565b73ffffffffffffffffffffffffffffffffffffffff166110bf610af4565b73ffffffffffffffffffffffffffffffffffffffff1614611115576040517f08c379a000000000000000000000000000000000000000000000000000000000815260040161110c906126f3565b60405180910390fd5b600073ffffffffffffffffffffffffffffffffffffffff168173ffffffffffffffffffffffffffffffffffffffff161415611185576040517f08c379a000000000000000000000000000000000000000000000000000000000815260040161117c906125b3565b60405180910390fd5b61118e81611662565b50565b60007f01ffc9a7000000000000000000000000000000000000000000000000000000007bffffffffffffffffffffffffffffffffffffffffffffffffffffffff1916827bffffffffffffffffffffffffffffffffffffffffffffffffffffffff1916149050919050565b60008073ffffffffffffffffffffffffffffffffffffffff166002600084815260200190815260200160002060009054906101000a900473ffffffffffffffffffffffffffffffffffffffff1673ffffffffffffffffffffffffffffffffffffffff1614159050919050565b600033905090565b816004600083815260200190815260200160002060006101000a81548173ffffffffffffffffffffffffffffffffffffffff021916908373ffffffffffffffffffffffffffffffffffffffff160217905550808273ffffffffffffffffffffffffffffffffffffffff166112e28361087b565b73ffffffffffffffffffffffffffffffffffffffff167f8c5be1e5ebec7d5bd14f71427d1e84f3dd0314c0f7b2291e5b200ac8c7c3b92560405160405180910390a45050565b6000611333826111fb565b611372576040517f08c379a000000000000000000000000000000000000000000000000000000000815260040161136990612633565b60405180910390fd5b600061137d8361087b565b90508073ffffffffffffffffffffffffffffffffffffffff168473ffffffffffffffffffffffffffffffffffffffff1614806113ec57508373ffffffffffffffffffffffffffffffffffffffff166113d48461061a565b73ffffffffffffffffffffffffffffffffffffffff16145b806113fd57506113fc8185610f12565b5b91505092915050565b8273ffffffffffffffffffffffffffffffffffffffff166114268261087b565b73ffffffffffffffffffffffffffffffffffffffff161461147c576040517f08c379a000000000000000000000000000000000000000000000000000000000815260040161147390612713565b60405180910390fd5b600073ffffffffffffffffffffffffffffffffffffffff168273ffffffffffffffffffffffffffffffffffffffff1614156114ec576040517f08c379a00000000000000000000000000000000000000000000000000000000081526004016114e3906125f3565b60405180910390fd5b6114f7838383611aee565b61150260008261126f565b6001600360008573ffffffffffffffffffffffffffffffffffffffff1673ffffffffffffffffffffffffffffffffffffffff168152602001908152602001600020600082825461155291906128ff565b925050819055506001600360008473ffffffffffffffffffffffffffffffffffffffff1673ffffffffffffffffffffffffffffffffffffffff16815260200190815260200160002060008282546115a99190612878565b92505081905550816002600083815260200190815260200160002060006101000a81548173ffffffffffffffffffffffffffffffffffffffff021916908373ffffffffffffffffffffffffffffffffffffffff160217905550808273ffffffffffffffffffffffffffffffffffffffff168473ffffffffffffffffffffffffffffffffffffffff167fddf252ad1be2c89b69c2b068fc378daa952ba7f163c4a11628f55a4df523b3ef60405160405180910390a4505050565b6000600660009054906101000a900473ffffffffffffffffffffffffffffffffffffffff16905081600660006101000a81548173ffffffffffffffffffffffffffffffffffffffff021916908373ffffffffffffffffffffffffffffffffffffffff1602179055508173ffffffffffffffffffffffffffffffffffffffff168173ffffffffffffffffffffffffffffffffffffffff167f8be0079c531659141344cd1fd0a4f28419497f9722a3daafe3b4186f6b6457e060405160405180910390a35050565b611733848484611406565b61173f84848484611af3565b61177e576040517f08c379a000000000000000000000000000000000000000000000000000000000815260040161177590612593565b60405180910390fd5b50505050565b606060405180602001604052806000815250905090565b606060008214156117e3576040518060400160405280600181526020017f300000000000000000000000000000000000000000000000000000000000000081525090506118f7565b600082905060005b600082146118155780806117fe90612a4c565b915050600a8261180e91906128ce565b91506117eb565b60008167ffffffffffffffff81111561183157611830612b82565b5b6040519080825280601f01601f1916602001820160405280156118635781602001600182028036833780820191505090505b5090505b600085146118f05760018261187c91906128ff565b9150600a8561188b9190612a95565b60306118979190612878565b60f81b8183815181106118ad576118ac612b53565b5b60200101907effffffffffffffffffffffffffffffffffffffffffffffffffffffffffffff1916908160001a905350600a856118e991906128ce565b9450611867565b8093505050505b919050565b6001816000016000828254019250508190555050565b600081600001549050919050565b600073ffffffffffffffffffffffffffffffffffffffff168273ffffffffffffffffffffffffffffffffffffffff161415611990576040517f08c379a0000000000000000000000000000000000000000000000000000000008152600401611987906126b3565b60405180910390fd5b611999816111fb565b156119d9576040517f08c379a00000000000000000000000000000000000000000000000000000000081526004016119d0906125d3565b60405180910390fd5b6119e560008383611aee565b6001600360008473ffffffffffffffffffffffffffffffffffffffff1673ffffffffffffffffffffffffffffffffffffffff1681526020019081526020016000206000828254611a359190612878565b92505081905550816002600083815260200190815260200160002060006101000a81548173ffffffffffffffffffffffffffffffffffffffff021916908373ffffffffffffffffffffffffffffffffffffffff160217905550808273ffffffffffffffffffffffffffffffffffffffff16600073ffffffffffffffffffffffffffffffffffffffff167fddf252ad1be2c89b69c2b068fc378daa952ba7f163c4a11628f55a4df523b3ef60405160405180910390a45050565b505050565b6000611b148473ffffffffffffffffffffffffffffffffffffffff16611c8a565b15611c7d578373ffffffffffffffffffffffffffffffffffffffff1663150b7a02611b3d611267565b8786866040518563ffffffff1660e01b8152600401611b5f949392919061250a565b602060405180830381600087803b158015611b7957600080fd5b505af1925050508015611baa57506040513d601f19601f82011682018060405250810190611ba791906120d5565b60015b611c2d573d8060008114611bda576040519150601f19603f3d011682016040523d82523d6000602084013e611bdf565b606091505b50600081511415611c25576040517f08c379a0000000000000000000000000000000000000000000000000000000008152600401611c1c90612593565b60405180910390fd5b805181602001fd5b63150b7a0260e01b7bffffffffffffffffffffffffffffffffffffffffffffffffffffffff1916817bffffffffffffffffffffffffffffffffffffffffffffffffffffffff191614915050611c82565b600190505b949350505050565b600080823b905060008111915050919050565b828054611ca9906129e9565b90600052602060002090601f016020900481019282611ccb5760008555611d12565b82601f10611ce457805160ff1916838001178555611d12565b82800160010185558215611d12579182015b82811115611d11578251825591602001919060010190611cf6565b5b509050611d1f9190611d23565b5090565b5b80821115611d3c576000816000905550600101611d24565b5090565b6000611d53611d4e846127d3565b6127ae565b905082815260208101848484011115611d6f57611d6e612bb6565b5b611d7a8482856129a7565b509392505050565b6000611d95611d9084612804565b6127ae565b905082815260208101848484011115611db157611db0612bb6565b5b611dbc8482856129a7565b509392505050565b600081359050611dd38161302e565b92915050565b600081359050611de881613045565b92915050565b600081359050611dfd8161305c565b92915050565b600081519050611e128161305c565b92915050565b600082601f830112611e2d57611e2c612bb1565b5b8135611e3d848260208601611d40565b91505092915050565b600082601f830112611e5b57611e5a612bb1565b5b8135611e6b848260208601611d82565b91505092915050565b600081359050611e8381613073565b92915050565b600060208284031215611e9f57611e9e612bc0565b5b6000611ead84828501611dc4565b91505092915050565b60008060408385031215611ecd57611ecc612bc0565b5b6000611edb85828601611dc4565b9250506020611eec85828601611dc4565b9150509250929050565b600080600060608486031215611f0f57611f0e612bc0565b5b6000611f1d86828701611dc4565b9350506020611f2e86828701611dc4565b9250506040611f3f86828701611e74565b9150509250925092565b60008060008060808587031215611f6357611f62612bc0565b5b6000611f7187828801611dc4565b9450506020611f8287828801611dc4565b9350506040611f9387828801611e74565b925050606085013567ffffffffffffffff811115611fb457611fb3612bbb565b5b611fc087828801611e18565b91505092959194509250565b60008060408385031215611fe357611fe2612bc0565b5b6000611ff185828601611dc4565b925050602061200285828601611dd9565b9150509250929050565b6000806040838503121561202357612022612bc0565b5b600061203185828601611dc4565b925050602083013567ffffffffffffffff81111561205257612051612bbb565b5b61205e85828601611e46565b9150509250929050565b6000806040838503121561207f5761207e612bc0565b5b600061208d85828601611dc4565b925050602061209e85828601611e74565b9150509250929050565b6000602082840312156120be576120bd612bc0565b5b60006120cc84828501611dee565b91505092915050565b6000602082840312156120eb576120ea612bc0565b5b60006120f984828501611e03565b91505092915050565b60006020828403121561211857612117612bc0565b5b600061212684828501611e74565b91505092915050565b6000806040838503121561214657612145612bc0565b5b600061215485828601611e74565b925050602083013567ffffffffffffffff81111561217557612174612bbb565b5b61218185828601611e46565b9150509250929050565b600080604083850312156121a2576121a1612bc0565b5b60006121b085828601611e74565b92505060206121c185828601611e74565b9150509250929050565b6121d481612933565b82525050565b6121e381612945565b82525050565b60006121f482612835565b6121fe818561284b565b935061220e8185602086016129b6565b61221781612bc5565b840191505092915050565b600061222d82612840565b612237818561285c565b93506122478185602086016129b6565b61225081612bc5565b840191505092915050565b600061226682612840565b612270818561286d565b93506122808185602086016129b6565b80840191505092915050565b600061229960328361285c565b91506122a482612bd6565b604082019050919050565b60006122bc60268361285c565b91506122c782612c25565b604082019050919050565b60006122df601c8361285c565b91506122ea82612c74565b602082019050919050565b600061230260248361285c565b915061230d82612c9d565b604082019050919050565b600061232560198361285c565b915061233082612cec565b602082019050919050565b6000612348602c8361285c565b915061235382612d15565b604082019050919050565b600061236b60388361285c565b915061237682612d64565b604082019050919050565b600061238e602a8361285c565b915061239982612db3565b604082019050919050565b60006123b160298361285c565b91506123bc82612e02565b604082019050919050565b60006123d460208361285c565b91506123df82612e51565b602082019050919050565b60006123f7602c8361285c565b915061240282612e7a565b604082019050919050565b600061241a60208361285c565b915061242582612ec9565b602082019050919050565b600061243d60298361285c565b915061244882612ef2565b604082019050919050565b6000612460602f8361285c565b915061246b82612f41565b604082019050919050565b600061248360218361285c565b915061248e82612f90565b604082019050919050565b60006124a660318361285c565b91506124b182612fdf565b604082019050919050565b6124c58161299d565b82525050565b60006124d7828561225b565b91506124e3828461225b565b91508190509392505050565b600060208201905061250460008301846121cb565b92915050565b600060808201905061251f60008301876121cb565b61252c60208301866121cb565b61253960408301856124bc565b818103606083015261254b81846121e9565b905095945050505050565b600060208201905061256b60008301846121da565b92915050565b6000602082019050818103600083015261258b8184612222565b905092915050565b600060208201905081810360008301526125ac8161228c565b9050919050565b600060208201905081810360008301526125cc816122af565b9050919050565b600060208201905081810360008301526125ec816122d2565b9050919050565b6000602082019050818103600083015261260c816122f5565b9050919050565b6000602082019050818103600083015261262c81612318565b9050919050565b6000602082019050818103600083015261264c8161233b565b9050919050565b6000602082019050818103600083015261266c8161235e565b9050919050565b6000602082019050818103600083015261268c81612381565b9050919050565b600060208201905081810360008301526126ac816123a4565b9050919050565b600060208201905081810360008301526126cc816123c7565b9050919050565b600060208201905081810360008301526126ec816123ea565b9050919050565b6000602082019050818103600083015261270c8161240d565b9050919050565b6000602082019050818103600083015261272c81612430565b9050919050565b6000602082019050818103600083015261274c81612453565b9050919050565b6000602082019050818103600083015261276c81612476565b9050919050565b6000602082019050818103600083015261278c81612499565b9050919050565b60006020820190506127a860008301846124bc565b92915050565b60006127b86127c9565b90506127c48282612a1b565b919050565b6000604051905090565b600067ffffffffffffffff8211156127ee576127ed612b82565b5b6127f782612bc5565b9050602081019050919050565b600067ffffffffffffffff82111561281f5761281e612b82565b5b61282882612bc5565b9050602081019050919050565b600081519050919050565b600081519050919050565b600082825260208201905092915050565b600082825260208201905092915050565b600081905092915050565b60006128838261299d565b915061288e8361299d565b9250827fffffffffffffffffffffffffffffffffffffffffffffffffffffffffffffffff038211156128c3576128c2612ac6565b5b828201905092915050565b60006128d98261299d565b91506128e48361299d565b9250826128f4576128f3612af5565b5b828204905092915050565b600061290a8261299d565b91506129158361299d565b92508282101561292857612927612ac6565b5b828203905092915050565b600061293e8261297d565b9050919050565b60008115159050919050565b60007fffffffff0000000000000000000000000000000000000000000000000000000082169050919050565b600073ffffffffffffffffffffffffffffffffffffffff82169050919050565b6000819050919050565b82818337600083830152505050565b60005b838110156129d45780820151818401526020810190506129b9565b838111156129e3576000848401525b50505050565b60006002820490506001821680612a0157607f821691505b60208210811415612a1557612a14612b24565b5b50919050565b612a2482612bc5565b810181811067ffffffffffffffff82111715612a4357612a42612b82565b5b80604052505050565b6000612a578261299d565b91507fffffffffffffffffffffffffffffffffffffffffffffffffffffffffffffffff821415612a8a57612a89612ac6565b5b600182019050919050565b6000612aa08261299d565b9150612aab8361299d565b925082612abb57612aba612af5565b5b828206905092915050565b7f4e487b7100000000000000000000000000000000000000000000000000000000600052601160045260246000fd5b7f4e487b7100000000000000000000000000000000000000000000000000000000600052601260045260246000fd5b7f4e487b7100000000000000000000000000000000000000000000000000000000600052602260045260246000fd5b7f4e487b7100000000000000000000000000000000000000000000000000000000600052603260045260246000fd5b7f4e487b7100000000000000000000000000000000000000000000000000000000600052604160045260246000fd5b600080fd5b600080fd5b600080fd5b600080fd5b6000601f19601f8301169050919050565b7f4552433732313a207472616e7366657220746f206e6f6e20455243373231526560008201527f63656976657220696d706c656d656e7465720000000000000000000000000000602082015250565b7f4f776e61626c653a206e6577206f776e657220697320746865207a65726f206160008201527f6464726573730000000000000000000000000000000000000000000000000000602082015250565b7f4552433732313a20746f6b656e20616c7265616479206d696e74656400000000600082015250565b7f4552433732313a207472616e7366657220746f20746865207a65726f2061646460008201527f7265737300000000000000000000000000000000000000000000000000000000602082015250565b7f4552433732313a20617070726f766520746f2063616c6c657200000000000000600082015250565b7f4552433732313a206f70657261746f7220717565727920666f72206e6f6e657860008201527f697374656e7420746f6b656e0000000000000000000000000000000000000000602082015250565b7f4552433732313a20617070726f76652063616c6c6572206973206e6f74206f7760008201527f6e6572206e6f7220617070726f76656420666f7220616c6c0000000000000000602082015250565b7f4552433732313a2062616c616e636520717565727920666f7220746865207a6560008201527f726f206164647265737300000000000000000000000000000000000000000000602082015250565b7f4552433732313a206f776e657220717565727920666f72206e6f6e657869737460008201527f656e7420746f6b656e0000000000000000000000000000000000000000000000602082015250565b7f4552433732313a206d696e7420746f20746865207a65726f2061646472657373600082015250565b7f4552433732313a20617070726f76656420717565727920666f72206e6f6e657860008201527f697374656e7420746f6b656e0000000000000000000000000000000000000000602082015250565b7f4f776e61626c653a2063616c6c6572206973206e6f7420746865206f776e6572600082015250565b7f4552433732313a207472616e73666572206f6620746f6b656e2074686174206960008201527f73206e6f74206f776e0000000000000000000000000000000000000000000000602082015250565b7f4552433732314d657461646174613a2055524920717565727920666f72206e6f60008201527f6e6578697374656e7420746f6b656e0000000000000000000000000000000000602082015250565b7f4552433732313a20617070726f76616c20746f2063757272656e74206f776e6560008201527f7200000000000000000000000000000000000000000000000000000000000000602082015250565b7f4552433732313a207472616e736665722063616c6c6572206973206e6f74206f60008201527f776e6572206e6f7220617070726f766564000000000000000000000000000000602082015250565b61303781612933565b811461304257600080fd5b50565b61304e81612945565b811461305957600080fd5b50565b61306581612951565b811461307057600080fd5b50565b61307c8161299d565b811461308757600080fd5b5056fea2646970667358221220660304c73d7ffe43314837d9b2d2d594eee9cd416f789c74f24f0b978b0326be64736f6c63430008070033",
  "linkReferences": {},
  "deployedLinkReferences": {}
}